{
  "contractName": "ERC20MinterBurnerPauser",
  "abi": [
    {
      "inputs": [
        {
          "internalType": "string",
          "name": "name",
          "type": "string"
        },
        {
          "internalType": "string",
          "name": "symbol",
          "type": "string"
        },
        {
          "internalType": "uint8",
          "name": "decimals",
          "type": "uint8"
        }
      ],
      "stateMutability": "nonpayable",
      "type": "constructor"
    },
    {
      "anonymous": false,
      "inputs": [
        {
          "indexed": false,
          "internalType": "address",
          "name": "",
          "type": "address"
        }
      ],
      "name": "AddAdmit",
      "type": "event"
    },
    {
      "anonymous": false,
      "inputs": [
        {
          "indexed": true,
          "internalType": "address",
          "name": "owner",
          "type": "address"
        },
        {
          "indexed": true,
          "internalType": "address",
          "name": "spender",
          "type": "address"
        },
        {
          "indexed": false,
          "internalType": "uint256",
          "name": "value",
          "type": "uint256"
        }
      ],
      "name": "Approval",
      "type": "event"
    },
    {
      "anonymous": false,
      "inputs": [
        {
          "indexed": false,
          "internalType": "address",
          "name": "account",
          "type": "address"
        }
      ],
      "name": "Paused",
      "type": "event"
    },
    {
      "anonymous": false,
      "inputs": [
        {
          "indexed": true,
          "internalType": "bytes32",
          "name": "role",
          "type": "bytes32"
        },
        {
          "indexed": true,
          "internalType": "bytes32",
          "name": "previousAdminRole",
          "type": "bytes32"
        },
        {
          "indexed": true,
          "internalType": "bytes32",
          "name": "newAdminRole",
          "type": "bytes32"
        }
      ],
      "name": "RoleAdminChanged",
      "type": "event"
    },
    {
      "anonymous": false,
      "inputs": [
        {
          "indexed": true,
          "internalType": "bytes32",
          "name": "role",
          "type": "bytes32"
        },
        {
          "indexed": true,
          "internalType": "address",
          "name": "account",
          "type": "address"
        },
        {
          "indexed": true,
          "internalType": "address",
          "name": "sender",
          "type": "address"
        }
      ],
      "name": "RoleGranted",
      "type": "event"
    },
    {
      "anonymous": false,
      "inputs": [
        {
          "indexed": true,
          "internalType": "bytes32",
          "name": "role",
          "type": "bytes32"
        },
        {
          "indexed": true,
          "internalType": "address",
          "name": "account",
          "type": "address"
        },
        {
          "indexed": true,
          "internalType": "address",
          "name": "sender",
          "type": "address"
        }
      ],
      "name": "RoleRevoked",
      "type": "event"
    },
    {
      "anonymous": false,
      "inputs": [
        {
          "indexed": true,
          "internalType": "address",
          "name": "from",
          "type": "address"
        },
        {
          "indexed": true,
          "internalType": "address",
          "name": "to",
          "type": "address"
        },
        {
          "indexed": false,
          "internalType": "uint256",
          "name": "value",
          "type": "uint256"
        }
      ],
      "name": "Transfer",
      "type": "event"
    },
    {
      "anonymous": false,
      "inputs": [
        {
          "indexed": false,
          "internalType": "address",
          "name": "account",
          "type": "address"
        }
      ],
      "name": "Unpaused",
      "type": "event"
    },
    {
      "inputs": [],
      "name": "DEFAULT_ADMIN_ROLE",
      "outputs": [
        {
          "internalType": "bytes32",
          "name": "",
          "type": "bytes32"
        }
      ],
      "stateMutability": "view",
      "type": "function"
    },
    {
      "inputs": [],
      "name": "MINTER_ROLE",
      "outputs": [
        {
          "internalType": "bytes32",
          "name": "",
          "type": "bytes32"
        }
      ],
      "stateMutability": "view",
      "type": "function"
    },
    {
      "inputs": [],
      "name": "PAUSER_ROLE",
      "outputs": [
        {
          "internalType": "bytes32",
          "name": "",
          "type": "bytes32"
        }
      ],
      "stateMutability": "view",
      "type": "function"
    },
    {
      "inputs": [
        {
          "internalType": "address",
          "name": "operatorAddress",
          "type": "address"
        }
      ],
      "name": "addMint",
      "outputs": [],
      "stateMutability": "nonpayable",
      "type": "function"
    },
    {
      "inputs": [
        {
          "internalType": "address",
          "name": "owner",
          "type": "address"
        },
        {
          "internalType": "address",
          "name": "spender",
          "type": "address"
        }
      ],
      "name": "allowance",
      "outputs": [
        {
          "internalType": "uint256",
          "name": "",
          "type": "uint256"
        }
      ],
      "stateMutability": "view",
      "type": "function"
    },
    {
      "inputs": [
        {
          "internalType": "address",
          "name": "spender",
          "type": "address"
        },
        {
          "internalType": "uint256",
          "name": "amount",
          "type": "uint256"
        }
      ],
      "name": "approve",
      "outputs": [
        {
          "internalType": "bool",
          "name": "",
          "type": "bool"
        }
      ],
      "stateMutability": "nonpayable",
      "type": "function"
    },
    {
      "inputs": [
        {
          "internalType": "address",
          "name": "account",
          "type": "address"
        }
      ],
      "name": "balanceOf",
      "outputs": [
        {
          "internalType": "uint256",
          "name": "",
          "type": "uint256"
        }
      ],
      "stateMutability": "view",
      "type": "function"
    },
    {
      "inputs": [
        {
          "internalType": "uint256",
          "name": "amount",
          "type": "uint256"
        }
      ],
      "name": "burn",
      "outputs": [],
      "stateMutability": "nonpayable",
      "type": "function"
    },
    {
      "inputs": [
        {
          "internalType": "address",
          "name": "account",
          "type": "address"
        },
        {
          "internalType": "uint256",
          "name": "amount",
          "type": "uint256"
        }
      ],
      "name": "burnFrom",
      "outputs": [],
      "stateMutability": "nonpayable",
      "type": "function"
    },
    {
      "inputs": [
        {
          "internalType": "address",
          "name": "spender",
          "type": "address"
        },
        {
          "internalType": "uint256",
          "name": "subtractedValue",
          "type": "uint256"
        }
      ],
      "name": "decreaseAllowance",
      "outputs": [
        {
          "internalType": "bool",
          "name": "",
          "type": "bool"
        }
      ],
      "stateMutability": "nonpayable",
      "type": "function"
    },
    {
      "inputs": [
        {
          "internalType": "bytes32",
          "name": "role",
          "type": "bytes32"
        }
      ],
      "name": "getRoleAdmin",
      "outputs": [
        {
          "internalType": "bytes32",
          "name": "",
          "type": "bytes32"
        }
      ],
      "stateMutability": "view",
      "type": "function"
    },
    {
      "inputs": [
        {
          "internalType": "bytes32",
          "name": "role",
          "type": "bytes32"
        },
        {
          "internalType": "address",
          "name": "account",
          "type": "address"
        }
      ],
      "name": "grantRole",
      "outputs": [],
      "stateMutability": "nonpayable",
      "type": "function"
    },
    {
      "inputs": [
        {
          "internalType": "bytes32",
          "name": "role",
          "type": "bytes32"
        },
        {
          "internalType": "address",
          "name": "account",
          "type": "address"
        }
      ],
      "name": "hasRole",
      "outputs": [
        {
          "internalType": "bool",
          "name": "",
          "type": "bool"
        }
      ],
      "stateMutability": "view",
      "type": "function"
    },
    {
      "inputs": [
        {
          "internalType": "address",
          "name": "spender",
          "type": "address"
        },
        {
          "internalType": "uint256",
          "name": "addedValue",
          "type": "uint256"
        }
      ],
      "name": "increaseAllowance",
      "outputs": [
        {
          "internalType": "bool",
          "name": "",
          "type": "bool"
        }
      ],
      "stateMutability": "nonpayable",
      "type": "function"
    },
    {
      "inputs": [
        {
          "internalType": "address",
          "name": "operator",
          "type": "address"
        }
      ],
      "name": "isMinter",
      "outputs": [
        {
          "internalType": "bool",
          "name": "",
          "type": "bool"
        }
      ],
      "stateMutability": "view",
      "type": "function"
    },
    {
      "inputs": [
        {
          "internalType": "address",
          "name": "to",
          "type": "address"
        },
        {
          "internalType": "uint256",
          "name": "amount",
          "type": "uint256"
        }
      ],
      "name": "mint",
      "outputs": [],
      "stateMutability": "nonpayable",
      "type": "function"
    },
    {
      "inputs": [],
      "name": "name",
      "outputs": [
        {
          "internalType": "string",
          "name": "",
          "type": "string"
        }
      ],
      "stateMutability": "view",
      "type": "function"
    },
    {
      "inputs": [],
      "name": "pause",
      "outputs": [],
      "stateMutability": "nonpayable",
      "type": "function"
    },
    {
      "inputs": [],
      "name": "paused",
      "outputs": [
        {
          "internalType": "bool",
          "name": "",
          "type": "bool"
        }
      ],
      "stateMutability": "view",
      "type": "function"
    },
    {
      "inputs": [
        {
          "internalType": "bytes32",
          "name": "role",
          "type": "bytes32"
        },
        {
          "internalType": "address",
          "name": "account",
          "type": "address"
        }
      ],
      "name": "renounceRole",
      "outputs": [],
      "stateMutability": "nonpayable",
      "type": "function"
    },
    {
      "inputs": [
        {
          "internalType": "bytes32",
          "name": "role",
          "type": "bytes32"
        },
        {
          "internalType": "address",
          "name": "account",
          "type": "address"
        }
      ],
      "name": "revokeRole",
      "outputs": [],
      "stateMutability": "nonpayable",
      "type": "function"
    },
    {
      "inputs": [
        {
          "internalType": "bytes4",
          "name": "interfaceId",
          "type": "bytes4"
        }
      ],
      "name": "supportsInterface",
      "outputs": [
        {
          "internalType": "bool",
          "name": "",
          "type": "bool"
        }
      ],
      "stateMutability": "view",
      "type": "function"
    },
    {
      "inputs": [],
      "name": "symbol",
      "outputs": [
        {
          "internalType": "string",
          "name": "",
          "type": "string"
        }
      ],
      "stateMutability": "view",
      "type": "function"
    },
    {
      "inputs": [],
      "name": "totalSupply",
      "outputs": [
        {
          "internalType": "uint256",
          "name": "",
          "type": "uint256"
        }
      ],
      "stateMutability": "view",
      "type": "function"
    },
    {
      "inputs": [
        {
          "internalType": "address",
          "name": "to",
          "type": "address"
        },
        {
          "internalType": "uint256",
          "name": "amount",
          "type": "uint256"
        }
      ],
      "name": "transfer",
      "outputs": [
        {
          "internalType": "bool",
          "name": "",
          "type": "bool"
        }
      ],
      "stateMutability": "nonpayable",
      "type": "function"
    },
    {
      "inputs": [
        {
          "internalType": "address",
          "name": "from",
          "type": "address"
        },
        {
          "internalType": "address",
          "name": "to",
          "type": "address"
        },
        {
          "internalType": "uint256",
          "name": "amount",
          "type": "uint256"
        }
      ],
      "name": "transferFrom",
      "outputs": [
        {
          "internalType": "bool",
          "name": "",
          "type": "bool"
        }
      ],
      "stateMutability": "nonpayable",
      "type": "function"
    },
    {
      "inputs": [],
      "name": "unpause",
      "outputs": [],
      "stateMutability": "nonpayable",
      "type": "function"
    },
    {
      "inputs": [],
      "name": "decimals",
      "outputs": [
        {
          "internalType": "uint8",
          "name": "",
          "type": "uint8"
        }
      ],
      "stateMutability": "view",
      "type": "function"
    }
  ],
  "bytecode": "0x60806040523480156200001157600080fd5b50604051620036123803806200361283398181016040528101906200003791906200056e565b82828181816004908051906020019062000053929190620002e3565b5080600590805190602001906200006c929190620002e3565b5050506000600660006101000a81548160ff021916908315150217905550620000ae6000801b620000a26200014c60201b60201c565b6200015460201b60201c565b620000ef7f9f2df0fed2c77648de5860a4cc508cd0818c85b8b8a1ab4ceeef8d981c8956a6620000e36200014c60201b60201c565b6200015460201b60201c565b620001307f65d7a28e3265b37a6474929f336521b332c1681b933f6cb9f3376673440d862a620001246200014c60201b60201c565b6200015460201b60201c565b505062000143816200016a60201b60201c565b5050506200066d565b600033905090565b6200016682826200018860201b60201c565b5050565b80600660016101000a81548160ff021916908360ff16021790555050565b6200019a82826200027960201b60201c565b6200027557600160008084815260200190815260200160002060000160008373ffffffffffffffffffffffffffffffffffffffff1673ffffffffffffffffffffffffffffffffffffffff16815260200190815260200160002060006101000a81548160ff0219169083151502179055506200021a6200014c60201b60201c565b73ffffffffffffffffffffffffffffffffffffffff168173ffffffffffffffffffffffffffffffffffffffff16837f2f8788117e7eff1d82e926ec794901d17c78024a50270940304540a733656f0d60405160405180910390a45b5050565b600080600084815260200190815260200160002060000160008373ffffffffffffffffffffffffffffffffffffffff1673ffffffffffffffffffffffffffffffffffffffff16815260200190815260200160002060009054906101000a900460ff16905092915050565b828054620002f19062000637565b90600052602060002090601f01602090048101928262000315576000855562000361565b82601f106200033057805160ff191683800117855562000361565b8280016001018555821562000361579182015b828111156200036057825182559160200191906001019062000343565b5b50905062000370919062000374565b5090565b5b808211156200038f57600081600090555060010162000375565b5090565b6000604051905090565b600080fd5b600080fd5b600080fd5b600080fd5b6000601f19601f8301169050919050565b7f4e487b7100000000000000000000000000000000000000000000000000000000600052604160045260246000fd5b620003fc82620003b1565b810181811067ffffffffffffffff821117156200041e576200041d620003c2565b5b80604052505050565b60006200043362000393565b9050620004418282620003f1565b919050565b600067ffffffffffffffff821115620004645762000463620003c2565b5b6200046f82620003b1565b9050602081019050919050565b60005b838110156200049c5780820151818401526020810190506200047f565b83811115620004ac576000848401525b50505050565b6000620004c9620004c38462000446565b62000427565b905082815260208101848484011115620004e857620004e7620003ac565b5b620004f58482856200047c565b509392505050565b600082601f830112620005155762000514620003a7565b5b815162000527848260208601620004b2565b91505092915050565b600060ff82169050919050565b620005488162000530565b81146200055457600080fd5b50565b60008151905062000568816200053d565b92915050565b6000806000606084860312156200058a57620005896200039d565b5b600084015167ffffffffffffffff811115620005ab57620005aa620003a2565b5b620005b986828701620004fd565b935050602084015167ffffffffffffffff811115620005dd57620005dc620003a2565b5b620005eb86828701620004fd565b9250506040620005fe8682870162000557565b9150509250925092565b7f4e487b7100000000000000000000000000000000000000000000000000000000600052602260045260246000fd5b600060028204905060018216806200065057607f821691505b6020821081141562000667576200066662000608565b5b50919050565b612f95806200067d6000396000f3fe608060405234801561001057600080fd5b50600436106101c45760003560e01c80635c975abb116100f9578063a457c2d711610097578063d539139311610071578063d539139314610519578063d547741f14610537578063dd62ed3e14610553578063e63ab1e914610583576101c4565b8063a457c2d714610489578063a9059cbb146104b9578063aa271e1a146104e9576101c4565b80638456cb59116100d35780638456cb591461041357806391d148541461041d57806395d89b411461044d578063a217fddf1461046b576101c4565b80635c975abb146103a957806370a08231146103c757806379cc6790146103f7576101c4565b80632f2ff15d11610166578063395093511161014057806339509351146103375780633f4ba83a1461036757806340c10f191461037157806342966c681461038d576101c4565b80632f2ff15d146102e1578063313ce567146102fd57806336568abe1461031b576101c4565b806318160ddd116101a257806318160ddd1461024757806323b872dd14610265578063248a9ca3146102955780632e9b904b146102c5576101c4565b806301ffc9a7146101c957806306fdde03146101f9578063095ea7b314610217575b600080fd5b6101e360048036038101906101de9190611e2c565b6105a1565b6040516101f09190611e74565b60405180910390f35b61020161061b565b60405161020e9190611f28565b60405180910390f35b610231600480360381019061022c9190611fde565b6106ad565b60405161023e9190611e74565b60405180910390f35b61024f6106d0565b60405161025c919061202d565b60405180910390f35b61027f600480360381019061027a9190612048565b6106da565b60405161028c9190611e74565b60405180910390f35b6102af60048036038101906102aa91906120d1565b610709565b6040516102bc919061210d565b60405180910390f35b6102df60048036038101906102da9190612128565b610728565b005b6102fb60048036038101906102f69190612155565b610849565b005b610305610872565b60405161031291906121b1565b60405180910390f35b61033560048036038101906103309190612155565b610889565b005b610351600480360381019061034c9190611fde565b61090c565b60405161035e9190611e74565b60405180910390f35b61036f6109b6565b005b61038b60048036038101906103869190611fde565b610a30565b005b6103a760048036038101906103a291906121cc565b610aae565b005b6103b1610ac2565b6040516103be9190611e74565b60405180910390f35b6103e160048036038101906103dc9190612128565b610ad9565b6040516103ee919061202d565b60405180910390f35b610411600480360381019061040c9190611fde565b610b22565b005b61041b610b42565b005b61043760048036038101906104329190612155565b610bbc565b6040516104449190611e74565b60405180910390f35b610455610c26565b6040516104629190611f28565b60405180910390f35b610473610cb8565b604051610480919061210d565b60405180910390f35b6104a3600480360381019061049e9190611fde565b610cbf565b6040516104b09190611e74565b60405180910390f35b6104d360048036038101906104ce9190611fde565b610da9565b6040516104e09190611e74565b60405180910390f35b61050360048036038101906104fe9190612128565b610dcc565b6040516105109190611e74565b60405180910390f35b610521610dff565b60405161052e919061210d565b60405180910390f35b610551600480360381019061054c9190612155565b610e23565b005b61056d600480360381019061056891906121f9565b610e4c565b60405161057a919061202d565b60405180910390f35b61058b610ed3565b604051610598919061210d565b60405180910390f35b60007f7965db0b000000000000000000000000000000000000000000000000000000007bffffffffffffffffffffffffffffffffffffffffffffffffffffffff1916827bffffffffffffffffffffffffffffffffffffffffffffffffffffffff19161480610614575061061382610ef7565b5b9050919050565b60606004805461062a90612268565b80601f016020809104026020016040519081016040528092919081815260200182805461065690612268565b80156106a35780601f10610678576101008083540402835291602001916106a3565b820191906000526020600020905b81548152906001019060200180831161068657829003601f168201915b5050505050905090565b6000806106b8610f61565b90506106c5818585610f69565b600191505092915050565b6000600354905090565b6000806106e5610f61565b90506106f2858285611134565b6106fd8585856111c0565b60019150509392505050565b6000806000838152602001908152602001600020600101549050919050565b61073c6000801b610737610f61565b610bbc565b61077b576040517f08c379a0000000000000000000000000000000000000000000000000000000008152600401610772906122e6565b60405180910390fd5b6107a57f9f2df0fed2c77648de5860a4cc508cd0818c85b8b8a1ab4ceeef8d981c8956a682610bbc565b156107e5576040517f08c379a00000000000000000000000000000000000000000000000000000000081526004016107dc906122e6565b60405180910390fd5b61080f7f9f2df0fed2c77648de5860a4cc508cd0818c85b8b8a1ab4ceeef8d981c8956a682610849565b7f9fd00538292f880e92f27c9622b8b371fd8d3c6110f419f72d9d63ca376b99de8160405161083e9190612315565b60405180910390a150565b61085282610709565b6108638161085e610f61565b611444565b61086d83836114e1565b505050565b6000600660019054906101000a900460ff16905090565b610891610f61565b73ffffffffffffffffffffffffffffffffffffffff168173ffffffffffffffffffffffffffffffffffffffff16146108fe576040517f08c379a00000000000000000000000000000000000000000000000000000000081526004016108f5906123a2565b60405180910390fd5b61090882826115c1565b5050565b600080610917610f61565b90506109ab818585600260008673ffffffffffffffffffffffffffffffffffffffff1673ffffffffffffffffffffffffffffffffffffffff16815260200190815260200160002060008973ffffffffffffffffffffffffffffffffffffffff1673ffffffffffffffffffffffffffffffffffffffff168152602001908152602001600020546109a691906123f1565b610f69565b600191505092915050565b6109e77f65d7a28e3265b37a6474929f336521b332c1681b933f6cb9f3376673440d862a6109e2610f61565b610bbc565b610a26576040517f08c379a0000000000000000000000000000000000000000000000000000000008152600401610a1d906124b9565b60405180910390fd5b610a2e6116a2565b565b610a617f9f2df0fed2c77648de5860a4cc508cd0818c85b8b8a1ab4ceeef8d981c8956a6610a5c610f61565b610bbc565b610aa0576040517f08c379a0000000000000000000000000000000000000000000000000000000008152600401610a979061254b565b60405180910390fd5b610aaa8282611744565b5050565b610abf610ab9610f61565b826118a5565b50565b6000600660009054906101000a900460ff16905090565b6000600160008373ffffffffffffffffffffffffffffffffffffffff1673ffffffffffffffffffffffffffffffffffffffff168152602001908152602001600020549050919050565b610b3482610b2e610f61565b83611134565b610b3e82826118a5565b5050565b610b737f65d7a28e3265b37a6474929f336521b332c1681b933f6cb9f3376673440d862a610b6e610f61565b610bbc565b610bb2576040517f08c379a0000000000000000000000000000000000000000000000000000000008152600401610ba9906125dd565b60405180910390fd5b610bba611a7e565b565b600080600084815260200190815260200160002060000160008373ffffffffffffffffffffffffffffffffffffffff1673ffffffffffffffffffffffffffffffffffffffff16815260200190815260200160002060009054906101000a900460ff16905092915050565b606060058054610c3590612268565b80601f0160208091040260200160405190810160405280929190818152602001828054610c6190612268565b8015610cae5780601f10610c8357610100808354040283529160200191610cae565b820191906000526020600020905b815481529060010190602001808311610c9157829003601f168201915b5050505050905090565b6000801b81565b600080610cca610f61565b90506000600260008373ffffffffffffffffffffffffffffffffffffffff1673ffffffffffffffffffffffffffffffffffffffff16815260200190815260200160002060008673ffffffffffffffffffffffffffffffffffffffff1673ffffffffffffffffffffffffffffffffffffffff16815260200190815260200160002054905083811015610d90576040517f08c379a0000000000000000000000000000000000000000000000000000000008152600401610d879061266f565b60405180910390fd5b610d9d8286868403610f69565b60019250505092915050565b600080610db4610f61565b9050610dc18185856111c0565b600191505092915050565b6000610df87f9f2df0fed2c77648de5860a4cc508cd0818c85b8b8a1ab4ceeef8d981c8956a683610bbc565b9050919050565b7f9f2df0fed2c77648de5860a4cc508cd0818c85b8b8a1ab4ceeef8d981c8956a681565b610e2c82610709565b610e3d81610e38610f61565b611444565b610e4783836115c1565b505050565b6000600260008473ffffffffffffffffffffffffffffffffffffffff1673ffffffffffffffffffffffffffffffffffffffff16815260200190815260200160002060008373ffffffffffffffffffffffffffffffffffffffff1673ffffffffffffffffffffffffffffffffffffffff16815260200190815260200160002054905092915050565b7f65d7a28e3265b37a6474929f336521b332c1681b933f6cb9f3376673440d862a81565b60007f01ffc9a7000000000000000000000000000000000000000000000000000000007bffffffffffffffffffffffffffffffffffffffffffffffffffffffff1916827bffffffffffffffffffffffffffffffffffffffffffffffffffffffff1916149050919050565b600033905090565b600073ffffffffffffffffffffffffffffffffffffffff168373ffffffffffffffffffffffffffffffffffffffff161415610fd9576040517f08c379a0000000000000000000000000000000000000000000000000000000008152600401610fd090612701565b60405180910390fd5b600073ffffffffffffffffffffffffffffffffffffffff168273ffffffffffffffffffffffffffffffffffffffff161415611049576040517f08c379a000000000000000000000000000000000000000000000000000000000815260040161104090612793565b60405180910390fd5b80600260008573ffffffffffffffffffffffffffffffffffffffff1673ffffffffffffffffffffffffffffffffffffffff16815260200190815260200160002060008473ffffffffffffffffffffffffffffffffffffffff1673ffffffffffffffffffffffffffffffffffffffff168152602001908152602001600020819055508173ffffffffffffffffffffffffffffffffffffffff168373ffffffffffffffffffffffffffffffffffffffff167f8c5be1e5ebec7d5bd14f71427d1e84f3dd0314c0f7b2291e5b200ac8c7c3b92583604051611127919061202d565b60405180910390a3505050565b60006111408484610e4c565b90507fffffffffffffffffffffffffffffffffffffffffffffffffffffffffffffffff81146111ba57818110156111ac576040517f08c379a00000000000000000000000000000000000000000000000000000000081526004016111a3906127ff565b60405180910390fd5b6111b98484848403610f69565b5b50505050565b600073ffffffffffffffffffffffffffffffffffffffff168373ffffffffffffffffffffffffffffffffffffffff161415611230576040517f08c379a000000000000000000000000000000000000000000000000000000000815260040161122790612891565b60405180910390fd5b600073ffffffffffffffffffffffffffffffffffffffff168273ffffffffffffffffffffffffffffffffffffffff1614156112a0576040517f08c379a000000000000000000000000000000000000000000000000000000000815260040161129790612923565b60405180910390fd5b6112ab838383611b21565b6000600160008573ffffffffffffffffffffffffffffffffffffffff1673ffffffffffffffffffffffffffffffffffffffff16815260200190815260200160002054905081811015611332576040517f08c379a0000000000000000000000000000000000000000000000000000000008152600401611329906129b5565b60405180910390fd5b818103600160008673ffffffffffffffffffffffffffffffffffffffff1673ffffffffffffffffffffffffffffffffffffffff1681526020019081526020016000208190555081600160008573ffffffffffffffffffffffffffffffffffffffff1673ffffffffffffffffffffffffffffffffffffffff16815260200190815260200160002060008282546113c791906123f1565b925050819055508273ffffffffffffffffffffffffffffffffffffffff168473ffffffffffffffffffffffffffffffffffffffff167fddf252ad1be2c89b69c2b068fc378daa952ba7f163c4a11628f55a4df523b3ef8460405161142b919061202d565b60405180910390a361143e848484611b31565b50505050565b61144e8282610bbc565b6114dd576114738173ffffffffffffffffffffffffffffffffffffffff166014611b36565b6114818360001c6020611b36565b604051602001611492929190612aa9565b6040516020818303038152906040526040517f08c379a00000000000000000000000000000000000000000000000000000000081526004016114d49190611f28565b60405180910390fd5b5050565b6114eb8282610bbc565b6115bd57600160008084815260200190815260200160002060000160008373ffffffffffffffffffffffffffffffffffffffff1673ffffffffffffffffffffffffffffffffffffffff16815260200190815260200160002060006101000a81548160ff021916908315150217905550611562610f61565b73ffffffffffffffffffffffffffffffffffffffff168173ffffffffffffffffffffffffffffffffffffffff16837f2f8788117e7eff1d82e926ec794901d17c78024a50270940304540a733656f0d60405160405180910390a45b5050565b6115cb8282610bbc565b1561169e57600080600084815260200190815260200160002060000160008373ffffffffffffffffffffffffffffffffffffffff1673ffffffffffffffffffffffffffffffffffffffff16815260200190815260200160002060006101000a81548160ff021916908315150217905550611643610f61565b73ffffffffffffffffffffffffffffffffffffffff168173ffffffffffffffffffffffffffffffffffffffff16837ff6391f5c32d9c69d2a47ea670b442974b53935d1edc7fd64eb21e047a839171b60405160405180910390a45b5050565b6116aa610ac2565b6116e9576040517f08c379a00000000000000000000000000000000000000000000000000000000081526004016116e090612b2f565b60405180910390fd5b6000600660006101000a81548160ff0219169083151502179055507f5db9ee0a495bf2e6ff9c91a7834c1ba4fdd244a5e8aa4e537bd38aeae4b073aa61172d610f61565b60405161173a9190612315565b60405180910390a1565b600073ffffffffffffffffffffffffffffffffffffffff168273ffffffffffffffffffffffffffffffffffffffff1614156117b4576040517f08c379a00000000000000000000000000000000000000000000000000000000081526004016117ab90612b9b565b60405180910390fd5b6117c060008383611b21565b80600360008282546117d291906123f1565b9250508190555080600160008473ffffffffffffffffffffffffffffffffffffffff1673ffffffffffffffffffffffffffffffffffffffff168152602001908152602001600020600082825461182891906123f1565b925050819055508173ffffffffffffffffffffffffffffffffffffffff16600073ffffffffffffffffffffffffffffffffffffffff167fddf252ad1be2c89b69c2b068fc378daa952ba7f163c4a11628f55a4df523b3ef8360405161188d919061202d565b60405180910390a36118a160008383611b31565b5050565b600073ffffffffffffffffffffffffffffffffffffffff168273ffffffffffffffffffffffffffffffffffffffff161415611915576040517f08c379a000000000000000000000000000000000000000000000000000000000815260040161190c90612c2d565b60405180910390fd5b61192182600083611b21565b6000600160008473ffffffffffffffffffffffffffffffffffffffff1673ffffffffffffffffffffffffffffffffffffffff168152602001908152602001600020549050818110156119a8576040517f08c379a000000000000000000000000000000000000000000000000000000000815260040161199f90612cbf565b60405180910390fd5b818103600160008573ffffffffffffffffffffffffffffffffffffffff1673ffffffffffffffffffffffffffffffffffffffff168152602001908152602001600020819055508160036000828254611a009190612cdf565b92505081905550600073ffffffffffffffffffffffffffffffffffffffff168373ffffffffffffffffffffffffffffffffffffffff167fddf252ad1be2c89b69c2b068fc378daa952ba7f163c4a11628f55a4df523b3ef84604051611a65919061202d565b60405180910390a3611a7983600084611b31565b505050565b611a86610ac2565b15611ac6576040517f08c379a0000000000000000000000000000000000000000000000000000000008152600401611abd90612d5f565b60405180910390fd5b6001600660006101000a81548160ff0219169083151502179055507f62e78cea01bee320cd4e420270b5ea74000d11b0c9f74754ebdbfc544b05a258611b0a610f61565b604051611b179190612315565b60405180910390a1565b611b2c838383611d72565b505050565b505050565b606060006002836002611b499190612d7f565b611b5391906123f1565b67ffffffffffffffff811115611b6c57611b6b612dd9565b5b6040519080825280601f01601f191660200182016040528015611b9e5781602001600182028036833780820191505090505b5090507f300000000000000000000000000000000000000000000000000000000000000081600081518110611bd657611bd5612e08565b5b60200101907effffffffffffffffffffffffffffffffffffffffffffffffffffffffffffff1916908160001a9053507f780000000000000000000000000000000000000000000000000000000000000081600181518110611c3a57611c39612e08565b5b60200101907effffffffffffffffffffffffffffffffffffffffffffffffffffffffffffff1916908160001a90535060006001846002611c7a9190612d7f565b611c8491906123f1565b90505b6001811115611d24577f3031323334353637383961626364656600000000000000000000000000000000600f861660108110611cc657611cc5612e08565b5b1a60f81b828281518110611cdd57611cdc612e08565b5b60200101907effffffffffffffffffffffffffffffffffffffffffffffffffffffffffffff1916908160001a905350600485901c945080611d1d90612e37565b9050611c87565b5060008414611d68576040517f08c379a0000000000000000000000000000000000000000000000000000000008152600401611d5f90612ead565b60405180910390fd5b8091505092915050565b611d7d838383611dca565b611d85610ac2565b15611dc5576040517f08c379a0000000000000000000000000000000000000000000000000000000008152600401611dbc90612f3f565b60405180910390fd5b505050565b505050565b600080fd5b60007fffffffff0000000000000000000000000000000000000000000000000000000082169050919050565b611e0981611dd4565b8114611e1457600080fd5b50565b600081359050611e2681611e00565b92915050565b600060208284031215611e4257611e41611dcf565b5b6000611e5084828501611e17565b91505092915050565b60008115159050919050565b611e6e81611e59565b82525050565b6000602082019050611e896000830184611e65565b92915050565b600081519050919050565b600082825260208201905092915050565b60005b83811015611ec9578082015181840152602081019050611eae565b83811115611ed8576000848401525b50505050565b6000601f19601f8301169050919050565b6000611efa82611e8f565b611f048185611e9a565b9350611f14818560208601611eab565b611f1d81611ede565b840191505092915050565b60006020820190508181036000830152611f428184611eef565b905092915050565b600073ffffffffffffffffffffffffffffffffffffffff82169050919050565b6000611f7582611f4a565b9050919050565b611f8581611f6a565b8114611f9057600080fd5b50565b600081359050611fa281611f7c565b92915050565b6000819050919050565b611fbb81611fa8565b8114611fc657600080fd5b50565b600081359050611fd881611fb2565b92915050565b60008060408385031215611ff557611ff4611dcf565b5b600061200385828601611f93565b925050602061201485828601611fc9565b9150509250929050565b61202781611fa8565b82525050565b6000602082019050612042600083018461201e565b92915050565b60008060006060848603121561206157612060611dcf565b5b600061206f86828701611f93565b935050602061208086828701611f93565b925050604061209186828701611fc9565b9150509250925092565b6000819050919050565b6120ae8161209b565b81146120b957600080fd5b50565b6000813590506120cb816120a5565b92915050565b6000602082840312156120e7576120e6611dcf565b5b60006120f5848285016120bc565b91505092915050565b6121078161209b565b82525050565b600060208201905061212260008301846120fe565b92915050565b60006020828403121561213e5761213d611dcf565b5b600061214c84828501611f93565b91505092915050565b6000806040838503121561216c5761216b611dcf565b5b600061217a858286016120bc565b925050602061218b85828601611f93565b9150509250929050565b600060ff82169050919050565b6121ab81612195565b82525050565b60006020820190506121c660008301846121a2565b92915050565b6000602082840312156121e2576121e1611dcf565b5b60006121f084828501611fc9565b91505092915050565b600080604083850312156122105761220f611dcf565b5b600061221e85828601611f93565b925050602061222f85828601611f93565b9150509250929050565b7f4e487b7100000000000000000000000000000000000000000000000000000000600052602260045260246000fd5b6000600282049050600182168061228057607f821691505b6020821081141561229457612293612239565b5b50919050565b7f6164647220616c726561647920686173206f70657261746f7220726f6c652100600082015250565b60006122d0601f83611e9a565b91506122db8261229a565b602082019050919050565b600060208201905081810360008301526122ff816122c3565b9050919050565b61230f81611f6a565b82525050565b600060208201905061232a6000830184612306565b92915050565b7f416363657373436f6e74726f6c3a2063616e206f6e6c792072656e6f756e636560008201527f20726f6c657320666f722073656c660000000000000000000000000000000000602082015250565b600061238c602f83611e9a565b915061239782612330565b604082019050919050565b600060208201905081810360008301526123bb8161237f565b9050919050565b7f4e487b7100000000000000000000000000000000000000000000000000000000600052601160045260246000fd5b60006123fc82611fa8565b915061240783611fa8565b9250827fffffffffffffffffffffffffffffffffffffffffffffffffffffffffffffffff0382111561243c5761243b6123c2565b5b828201905092915050565b7f45524332305072657365744d696e7465725061757365723a206d75737420686160008201527f76652070617573657220726f6c6520746f20756e706175736500000000000000602082015250565b60006124a3603983611e9a565b91506124ae82612447565b604082019050919050565b600060208201905081810360008301526124d281612496565b9050919050565b7f45524332305072657365744d696e7465725061757365723a206d75737420686160008201527f7665206d696e74657220726f6c6520746f206d696e7400000000000000000000602082015250565b6000612535603683611e9a565b9150612540826124d9565b604082019050919050565b6000602082019050818103600083015261256481612528565b9050919050565b7f45524332305072657365744d696e7465725061757365723a206d75737420686160008201527f76652070617573657220726f6c6520746f207061757365000000000000000000602082015250565b60006125c7603783611e9a565b91506125d28261256b565b604082019050919050565b600060208201905081810360008301526125f6816125ba565b9050919050565b7f45524332303a2064656372656173656420616c6c6f77616e63652062656c6f7760008201527f207a65726f000000000000000000000000000000000000000000000000000000602082015250565b6000612659602583611e9a565b9150612664826125fd565b604082019050919050565b600060208201905081810360008301526126888161264c565b9050919050565b7f45524332303a20617070726f76652066726f6d20746865207a65726f2061646460008201527f7265737300000000000000000000000000000000000000000000000000000000602082015250565b60006126eb602483611e9a565b91506126f68261268f565b604082019050919050565b6000602082019050818103600083015261271a816126de565b9050919050565b7f45524332303a20617070726f766520746f20746865207a65726f20616464726560008201527f7373000000000000000000000000000000000000000000000000000000000000602082015250565b600061277d602283611e9a565b915061278882612721565b604082019050919050565b600060208201905081810360008301526127ac81612770565b9050919050565b7f45524332303a20696e73756666696369656e7420616c6c6f77616e6365000000600082015250565b60006127e9601d83611e9a565b91506127f4826127b3565b602082019050919050565b60006020820190508181036000830152612818816127dc565b9050919050565b7f45524332303a207472616e736665722066726f6d20746865207a65726f20616460008201527f6472657373000000000000000000000000000000000000000000000000000000602082015250565b600061287b602583611e9a565b91506128868261281f565b604082019050919050565b600060208201905081810360008301526128aa8161286e565b9050919050565b7f45524332303a207472616e7366657220746f20746865207a65726f206164647260008201527f6573730000000000000000000000000000000000000000000000000000000000602082015250565b600061290d602383611e9a565b9150612918826128b1565b604082019050919050565b6000602082019050818103600083015261293c81612900565b9050919050565b7f45524332303a207472616e7366657220616d6f756e742065786365656473206260008201527f616c616e63650000000000000000000000000000000000000000000000000000602082015250565b600061299f602683611e9a565b91506129aa82612943565b604082019050919050565b600060208201905081810360008301526129ce81612992565b9050919050565b600081905092915050565b7f416363657373436f6e74726f6c3a206163636f756e7420000000000000000000600082015250565b6000612a166017836129d5565b9150612a21826129e0565b601782019050919050565b6000612a3782611e8f565b612a4181856129d5565b9350612a51818560208601611eab565b80840191505092915050565b7f206973206d697373696e6720726f6c6520000000000000000000000000000000600082015250565b6000612a936011836129d5565b9150612a9e82612a5d565b601182019050919050565b6000612ab482612a09565b9150612ac08285612a2c565b9150612acb82612a86565b9150612ad78284612a2c565b91508190509392505050565b7f5061757361626c653a206e6f7420706175736564000000000000000000000000600082015250565b6000612b19601483611e9a565b9150612b2482612ae3565b602082019050919050565b60006020820190508181036000830152612b4881612b0c565b9050919050565b7f45524332303a206d696e7420746f20746865207a65726f206164647265737300600082015250565b6000612b85601f83611e9a565b9150612b9082612b4f565b602082019050919050565b60006020820190508181036000830152612bb481612b78565b9050919050565b7f45524332303a206275726e2066726f6d20746865207a65726f2061646472657360008201527f7300000000000000000000000000000000000000000000000000000000000000602082015250565b6000612c17602183611e9a565b9150612c2282612bbb565b604082019050919050565b60006020820190508181036000830152612c4681612c0a565b9050919050565b7f45524332303a206275726e20616d6f756e7420657863656564732062616c616e60008201527f6365000000000000000000000000000000000000000000000000000000000000602082015250565b6000612ca9602283611e9a565b9150612cb482612c4d565b604082019050919050565b60006020820190508181036000830152612cd881612c9c565b9050919050565b6000612cea82611fa8565b9150612cf583611fa8565b925082821015612d0857612d076123c2565b5b828203905092915050565b7f5061757361626c653a2070617573656400000000000000000000000000000000600082015250565b6000612d49601083611e9a565b9150612d5482612d13565b602082019050919050565b60006020820190508181036000830152612d7881612d3c565b9050919050565b6000612d8a82611fa8565b9150612d9583611fa8565b9250817fffffffffffffffffffffffffffffffffffffffffffffffffffffffffffffffff0483118215151615612dce57612dcd6123c2565b5b828202905092915050565b7f4e487b7100000000000000000000000000000000000000000000000000000000600052604160045260246000fd5b7f4e487b7100000000000000000000000000000000000000000000000000000000600052603260045260246000fd5b6000612e4282611fa8565b91506000821415612e5657612e556123c2565b5b600182039050919050565b7f537472696e67733a20686578206c656e67746820696e73756666696369656e74600082015250565b6000612e97602083611e9a565b9150612ea282612e61565b602082019050919050565b60006020820190508181036000830152612ec681612e8a565b9050919050565b7f45524332305061757361626c653a20746f6b656e207472616e7366657220776860008201527f696c652070617573656400000000000000000000000000000000000000000000602082015250565b6000612f29602a83611e9a565b9150612f3482612ecd565b604082019050919050565b60006020820190508181036000830152612f5881612f1c565b905091905056fea264697066735822122085831b83d3db293f3a478146436004789f55183bea59b5e6a53cdc5e070a794e64736f6c634300080a0033",
  "immutableReferences": {},
  "source": "// SPDX-License-Identifier: MIT\npragma solidity ^0.8.0;\n\n\nimport \"./ERC20PresetMinterPauser.sol\";\n\n/**\n * @dev {ERC20} token, including:\n *\n *  - ability for holders to burn (destroy) their tokens\n *  - a minter role that allows for token minting (creation)\n *  - a pauser role that allows to stop all token transfers\n *\n * This contract uses {AccessControl} to lock permissioned functions using the\n * different roles - head to its documentation for details.\n *\n * The account that deploys the contract will be granted the minter and pauser\n * roles, as well as the default admin role, which will let it grant both minter\n * and pauser roles to aother accounts\n */\n\n\n\ncontract ERC20MinterBurnerPauser is ERC20PresetMinterPauser {\n\n   uint8 private _decimals;\n\n    function decimals() public view  override returns (uint8) {\n        return _decimals;\n    }\n\n   function _setupDecimals(uint8 decimal) internal {\n       _decimals=decimal;\n   }\n\n    \n\n    constructor(\n        string memory name,\n        string memory symbol,\n        uint8 decimals\n    )  ERC20PresetMinterPauser(name, symbol) {\n        _setupDecimals(decimals);\n    }\n}\n",
  "sourcePath": "/Volumes/datadisk/tech/practice/solidity/truffle-solidity/contracts/ERC20MinterBurnerPauser.sol",
  "compiler": {
    "name": "solc",
    "version": "0.8.10+commit.fc410830.Emscripten.clang"
  },
  "schemaVersion": "3.4.3",
  "updatedAt": "2022-03-28T04:00:40.993Z",
  "devdoc": {
    "details": "{ERC20} token, including:  - ability for holders to burn (destroy) their tokens  - a minter role that allows for token minting (creation)  - a pauser role that allows to stop all token transfers This contract uses {AccessControl} to lock permissioned functions using the different roles - head to its documentation for details. The account that deploys the contract will be granted the minter and pauser roles, as well as the default admin role, which will let it grant both minter and pauser roles to aother accounts",
    "kind": "dev",
    "methods": {
      "addMint(address)": {
        "params": {
          "operatorAddress": "Address of operator to be added."
        }
      },
      "allowance(address,address)": {
        "details": "See {IERC20-allowance}."
      },
      "approve(address,uint256)": {
        "details": "See {IERC20-approve}. NOTE: If `amount` is the maximum `uint256`, the allowance is not updated on `transferFrom`. This is semantically equivalent to an infinite approval. Requirements: - `spender` cannot be the zero address."
      },
      "balanceOf(address)": {
        "details": "See {IERC20-balanceOf}."
      },
      "burn(uint256)": {
        "details": "Destroys `amount` tokens from the caller. See {ERC20-_burn}."
      },
      "burnFrom(address,uint256)": {
        "details": "Destroys `amount` tokens from `account`, deducting from the caller's allowance. See {ERC20-_burn} and {ERC20-allowance}. Requirements: - the caller must have allowance for ``accounts``'s tokens of at least `amount`."
      },
      "decimals()": {
        "details": "Returns the number of decimals used to get its user representation. For example, if `decimals` equals `2`, a balance of `505` tokens should be displayed to a user as `5.05` (`505 / 10 ** 2`). Tokens usually opt for a value of 18, imitating the relationship between Ether and Wei. This is the value {ERC20} uses, unless this function is overridden; NOTE: This information is only used for _display_ purposes: it in no way affects any of the arithmetic of the contract, including {IERC20-balanceOf} and {IERC20-transfer}."
      },
      "decreaseAllowance(address,uint256)": {
        "details": "Atomically decreases the allowance granted to `spender` by the caller. This is an alternative to {approve} that can be used as a mitigation for problems described in {IERC20-approve}. Emits an {Approval} event indicating the updated allowance. Requirements: - `spender` cannot be the zero address. - `spender` must have allowance for the caller of at least `subtractedValue`."
      },
      "getRoleAdmin(bytes32)": {
        "details": "Returns the admin role that controls `role`. See {grantRole} and {revokeRole}. To change a role's admin, use {_setRoleAdmin}."
      },
      "grantRole(bytes32,address)": {
        "details": "Grants `role` to `account`. If `account` had not been already granted `role`, emits a {RoleGranted} event. Requirements: - the caller must have ``role``'s admin role."
      },
      "hasRole(bytes32,address)": {
        "details": "Returns `true` if `account` has been granted `role`."
      },
      "increaseAllowance(address,uint256)": {
        "details": "Atomically increases the allowance granted to `spender` by the caller. This is an alternative to {approve} that can be used as a mitigation for problems described in {IERC20-approve}. Emits an {Approval} event indicating the updated allowance. Requirements: - `spender` cannot be the zero address."
      },
      "isMinter(address)": {
        "params": {
          "operator": "Address to check."
        }
      },
      "mint(address,uint256)": {
        "details": "Creates `amount` new tokens for `to`. See {ERC20-_mint}. Requirements: - the caller must have the `MINTER_ROLE`."
      },
      "name()": {
        "details": "Returns the name of the token."
      },
      "pause()": {
        "details": "Pauses all token transfers. See {ERC20Pausable} and {Pausable-_pause}. Requirements: - the caller must have the `PAUSER_ROLE`."
      },
      "paused()": {
        "details": "Returns true if the contract is paused, and false otherwise."
      },
      "renounceRole(bytes32,address)": {
        "details": "Revokes `role` from the calling account. Roles are often managed via {grantRole} and {revokeRole}: this function's purpose is to provide a mechanism for accounts to lose their privileges if they are compromised (such as when a trusted device is misplaced). If the calling account had been revoked `role`, emits a {RoleRevoked} event. Requirements: - the caller must be `account`."
      },
      "revokeRole(bytes32,address)": {
        "details": "Revokes `role` from `account`. If `account` had been granted `role`, emits a {RoleRevoked} event. Requirements: - the caller must have ``role``'s admin role."
      },
      "supportsInterface(bytes4)": {
        "details": "See {IERC165-supportsInterface}."
      },
      "symbol()": {
        "details": "Returns the symbol of the token, usually a shorter version of the name."
      },
      "totalSupply()": {
        "details": "See {IERC20-totalSupply}."
      },
      "transfer(address,uint256)": {
        "details": "See {IERC20-transfer}. Requirements: - `to` cannot be the zero address. - the caller must have a balance of at least `amount`."
      },
      "transferFrom(address,address,uint256)": {
        "details": "See {IERC20-transferFrom}. Emits an {Approval} event indicating the updated allowance. This is not required by the EIP. See the note at the beginning of {ERC20}. NOTE: Does not update the allowance if the current allowance is the maximum `uint256`. Requirements: - `from` and `to` cannot be the zero address. - `from` must have a balance of at least `amount`. - the caller must have allowance for ``from``'s tokens of at least `amount`."
      },
      "unpause()": {
        "details": "Unpauses all token transfers. See {ERC20Pausable} and {Pausable-_unpause}. Requirements: - the caller must have the `PAUSER_ROLE`."
      }
    },
    "version": 1
  },
  "userdoc": {
    "kind": "user",
    "methods": {
      "addMint(address)": {
        "notice": "Grants {operatorAddress} the relayer role and increases {_totalOperator} count.Only callable by an address that currently has the admin role.Emits {OperatorAdded} event."
      },
      "isMinter(address)": {
        "notice": "Returns true if {operator} has the operator role."
      }
    },
    "version": 1
  }
}